{
  "address": "0x28D37f71E5462089845D93EF3995492043F51E6d",
  "abi": [
    {
      "inputs": [
        {
          "internalType": "contract IWETH",
          "name": "_weth",
          "type": "address"
        }
      ],
      "stateMutability": "nonpayable",
      "type": "constructor"
    },
    {
      "inputs": [],
      "name": "AdvanceEpochFailed",
      "type": "error"
    },
    {
      "inputs": [],
      "name": "ArbitraryStaticCallFailed",
      "type": "error"
    },
    {
      "inputs": [],
      "name": "BadSignature",
      "type": "error"
    },
    {
      "inputs": [],
      "name": "BitInvalidatedOrder",
      "type": "error"
    },
    {
      "inputs": [],
      "name": "ETHTransferFailed",
      "type": "error"
    },
    {
      "inputs": [],
      "name": "EnforcedPause",
      "type": "error"
    },
    {
      "inputs": [],
      "name": "EpochManagerAndBitInvalidatorsAreIncompatible",
      "type": "error"
    },
    {
      "inputs": [],
      "name": "EthDepositRejected",
      "type": "error"
    },
    {
      "inputs": [],
      "name": "ExpectedPause",
      "type": "error"
    },
    {
      "inputs": [],
      "name": "InvalidMsgValue",
      "type": "error"
    },
    {
      "inputs": [],
      "name": "InvalidPermit2Transfer",
      "type": "error"
    },
    {
      "inputs": [],
      "name": "InvalidShortString",
      "type": "error"
    },
    {
      "inputs": [],
      "name": "InvalidatedOrder",
      "type": "error"
    },
    {
      "inputs": [],
      "name": "MakingAmountTooLow",
      "type": "error"
    },
    {
      "inputs": [],
      "name": "MismatchArraysLengths",
      "type": "error"
    },
    {
      "inputs": [],
      "name": "OrderExpired",
      "type": "error"
    },
    {
      "inputs": [],
      "name": "OrderIsNotSuitableForMassInvalidation",
      "type": "error"
    },
    {
      "inputs": [
        {
          "internalType": "address",
          "name": "owner",
          "type": "address"
        }
      ],
      "name": "OwnableInvalidOwner",
      "type": "error"
    },
    {
      "inputs": [
        {
          "internalType": "address",
          "name": "account",
          "type": "address"
        }
      ],
      "name": "OwnableUnauthorizedAccount",
      "type": "error"
    },
    {
      "inputs": [],
      "name": "PartialFillNotAllowed",
      "type": "error"
    },
    {
      "inputs": [],
      "name": "Permit2TransferAmountTooHigh",
      "type": "error"
    },
    {
      "inputs": [],
      "name": "PredicateIsNotTrue",
      "type": "error"
    },
    {
      "inputs": [],
      "name": "PrivateOrder",
      "type": "error"
    },
    {
      "inputs": [],
      "name": "ReentrancyDetected",
      "type": "error"
    },
    {
      "inputs": [],
      "name": "RemainingInvalidatedOrder",
      "type": "error"
    },
    {
      "inputs": [],
      "name": "SafeTransferFailed",
      "type": "error"
    },
    {
      "inputs": [],
      "name": "SafeTransferFromFailed",
      "type": "error"
    },
    {
      "inputs": [
        {
          "internalType": "bool",
          "name": "success",
          "type": "bool"
        },
        {
          "internalType": "bytes",
          "name": "res",
          "type": "bytes"
        }
      ],
      "name": "SimulationResults",
      "type": "error"
    },
    {
      "inputs": [
        {
          "internalType": "string",
          "name": "str",
          "type": "string"
        }
      ],
      "name": "StringTooLong",
      "type": "error"
    },
    {
      "inputs": [],
      "name": "SwapWithZeroAmount",
      "type": "error"
    },
    {
      "inputs": [],
      "name": "TakingAmountExceeded",
      "type": "error"
    },
    {
      "inputs": [],
      "name": "TakingAmountTooHigh",
      "type": "error"
    },
    {
      "inputs": [],
      "name": "TransferFromMakerToTakerFailed",
      "type": "error"
    },
    {
      "inputs": [],
      "name": "TransferFromTakerToMakerFailed",
      "type": "error"
    },
    {
      "inputs": [],
      "name": "WrongSeriesNonce",
      "type": "error"
    },
    {
      "anonymous": false,
      "inputs": [
        {
          "indexed": true,
          "internalType": "address",
          "name": "maker",
          "type": "address"
        },
        {
          "indexed": false,
          "internalType": "uint256",
          "name": "slotIndex",
          "type": "uint256"
        },
        {
          "indexed": false,
          "internalType": "uint256",
          "name": "slotValue",
          "type": "uint256"
        }
      ],
      "name": "BitInvalidatorUpdated",
      "type": "event"
    },
    {
      "anonymous": false,
      "inputs": [],
      "name": "EIP712DomainChanged",
      "type": "event"
    },
    {
      "anonymous": false,
      "inputs": [
        {
          "indexed": true,
          "internalType": "address",
          "name": "maker",
          "type": "address"
        },
        {
          "indexed": false,
          "internalType": "uint256",
          "name": "series",
          "type": "uint256"
        },
        {
          "indexed": false,
          "internalType": "uint256",
          "name": "newEpoch",
          "type": "uint256"
        }
      ],
      "name": "EpochIncreased",
      "type": "event"
    },
    {
      "anonymous": false,
      "inputs": [
        {
          "indexed": false,
          "internalType": "bytes32",
          "name": "orderHash",
          "type": "bytes32"
        }
      ],
      "name": "OrderCancelled",
      "type": "event"
    },
    {
      "anonymous": false,
      "inputs": [
        {
          "indexed": false,
          "internalType": "bytes32",
          "name": "orderHash",
          "type": "bytes32"
        },
        {
          "indexed": false,
          "internalType": "uint256",
          "name": "remainingAmount",
          "type": "uint256"
        }
      ],
      "name": "OrderFilled",
      "type": "event"
    },
    {
      "anonymous": false,
      "inputs": [
        {
          "indexed": false,
          "internalType": "bytes32",
          "name": "suiAsset",
          "type": "bytes32"
        },
        {
          "indexed": false,
          "internalType": "bytes32",
          "name": "crossChainRecipient",
          "type": "bytes32"
        },
        {
          "indexed": false,
          "internalType": "address",
          "name": "maker",
          "type": "address"
        },
        {
          "indexed": false,
          "internalType": "address",
          "name": "takerAsset",
          "type": "address"
        },
        {
          "indexed": false,
          "internalType": "uint256",
          "name": "makingAmount",
          "type": "uint256"
        },
        {
          "indexed": false,
          "internalType": "uint256",
          "name": "takingAmount",
          "type": "uint256"
        }
      ],
      "name": "OrderVerified",
      "type": "event"
    },
    {
      "anonymous": false,
      "inputs": [
        {
          "indexed": true,
          "internalType": "address",
          "name": "previousOwner",
          "type": "address"
        },
        {
          "indexed": true,
          "internalType": "address",
          "name": "newOwner",
          "type": "address"
        }
      ],
      "name": "OwnershipTransferred",
      "type": "event"
    },
    {
      "anonymous": false,
      "inputs": [
        {
          "indexed": false,
          "internalType": "address",
          "name": "account",
          "type": "address"
        }
      ],
      "name": "Paused",
      "type": "event"
    },
    {
      "anonymous": false,
      "inputs": [
        {
          "indexed": false,
          "internalType": "address",
          "name": "account",
          "type": "address"
        }
      ],
      "name": "Unpaused",
      "type": "event"
    },
    {
      "inputs": [],
      "name": "DOMAIN_SEPARATOR",
      "outputs": [
        {
          "internalType": "bytes32",
          "name": "",
          "type": "bytes32"
        }
      ],
      "stateMutability": "view",
      "type": "function"
    },
    {
      "inputs": [
        {
          "internalType": "uint96",
          "name": "series",
          "type": "uint96"
        },
        {
          "internalType": "uint256",
          "name": "amount",
          "type": "uint256"
        }
      ],
      "name": "advanceEpoch",
      "outputs": [],
      "stateMutability": "nonpayable",
      "type": "function"
    },
    {
      "inputs": [
        {
          "internalType": "uint256",
          "name": "offsets",
          "type": "uint256"
        },
        {
          "internalType": "bytes",
          "name": "data",
          "type": "bytes"
        }
      ],
      "name": "and",
      "outputs": [
        {
          "internalType": "bool",
          "name": "",
          "type": "bool"
        }
      ],
      "stateMutability": "view",
      "type": "function"
    },
    {
      "inputs": [
        {
          "internalType": "address",
          "name": "target",
          "type": "address"
        },
        {
          "internalType": "bytes",
          "name": "data",
          "type": "bytes"
        }
      ],
      "name": "arbitraryStaticCall",
      "outputs": [
        {
          "internalType": "uint256",
          "name": "",
          "type": "uint256"
        }
      ],
      "stateMutability": "view",
      "type": "function"
    },
    {
      "inputs": [
        {
          "internalType": "address",
          "name": "maker",
          "type": "address"
        },
        {
          "internalType": "uint256",
          "name": "slot",
          "type": "uint256"
        }
      ],
      "name": "bitInvalidatorForOrder",
      "outputs": [
        {
          "internalType": "uint256",
          "name": "",
          "type": "uint256"
        }
      ],
      "stateMutability": "view",
      "type": "function"
    },
    {
      "inputs": [
        {
          "internalType": "MakerTraits",
          "name": "makerTraits",
          "type": "uint256"
        },
        {
          "internalType": "uint256",
          "name": "additionalMask",
          "type": "uint256"
        }
      ],
      "name": "bitsInvalidateForOrder",
      "outputs": [],
      "stateMutability": "nonpayable",
      "type": "function"
    },
    {
      "inputs": [
        {
          "internalType": "MakerTraits",
          "name": "makerTraits",
          "type": "uint256"
        },
        {
          "internalType": "bytes32",
          "name": "orderHash",
          "type": "bytes32"
        }
      ],
      "name": "cancelOrder",
      "outputs": [],
      "stateMutability": "nonpayable",
      "type": "function"
    },
    {
      "inputs": [
        {
          "internalType": "MakerTraits[]",
          "name": "makerTraits",
          "type": "uint256[]"
        },
        {
          "internalType": "bytes32[]",
          "name": "orderHashes",
          "type": "bytes32[]"
        }
      ],
      "name": "cancelOrders",
      "outputs": [],
      "stateMutability": "nonpayable",
      "type": "function"
    },
    {
      "inputs": [
        {
          "internalType": "bytes",
          "name": "predicate",
          "type": "bytes"
        }
      ],
      "name": "checkPredicate",
      "outputs": [
        {
          "internalType": "bool",
          "name": "",
          "type": "bool"
        }
      ],
      "stateMutability": "view",
      "type": "function"
    },
    {
      "inputs": [],
      "name": "eip712Domain",
      "outputs": [
        {
          "internalType": "bytes1",
          "name": "fields",
          "type": "bytes1"
        },
        {
          "internalType": "string",
          "name": "name",
          "type": "string"
        },
        {
          "internalType": "string",
          "name": "version",
          "type": "string"
        },
        {
          "internalType": "uint256",
          "name": "chainId",
          "type": "uint256"
        },
        {
          "internalType": "address",
          "name": "verifyingContract",
          "type": "address"
        },
        {
          "internalType": "bytes32",
          "name": "salt",
          "type": "bytes32"
        },
        {
          "internalType": "uint256[]",
          "name": "extensions",
          "type": "uint256[]"
        }
      ],
      "stateMutability": "view",
      "type": "function"
    },
    {
      "inputs": [
        {
          "internalType": "address",
          "name": "maker",
          "type": "address"
        },
        {
          "internalType": "uint96",
          "name": "series",
          "type": "uint96"
        }
      ],
      "name": "epoch",
      "outputs": [
        {
          "internalType": "uint256",
          "name": "",
          "type": "uint256"
        }
      ],
      "stateMutability": "view",
      "type": "function"
    },
    {
      "inputs": [
        {
          "internalType": "address",
          "name": "maker",
          "type": "address"
        },
        {
          "internalType": "uint256",
          "name": "series",
          "type": "uint256"
        },
        {
          "internalType": "uint256",
          "name": "makerEpoch",
          "type": "uint256"
        }
      ],
      "name": "epochEquals",
      "outputs": [
        {
          "internalType": "bool",
          "name": "",
          "type": "bool"
        }
      ],
      "stateMutability": "view",
      "type": "function"
    },
    {
      "inputs": [
        {
          "internalType": "uint256",
          "name": "value",
          "type": "uint256"
        },
        {
          "internalType": "bytes",
          "name": "data",
          "type": "bytes"
        }
      ],
      "name": "eq",
      "outputs": [
        {
          "internalType": "bool",
          "name": "",
          "type": "bool"
        }
      ],
      "stateMutability": "view",
      "type": "function"
    },
    {
      "inputs": [
        {
          "components": [
            {
              "internalType": "uint256",
              "name": "salt",
              "type": "uint256"
            },
            {
              "internalType": "Address",
              "name": "maker",
              "type": "uint256"
            },
            {
              "internalType": "Address",
              "name": "receiver",
              "type": "uint256"
            },
            {
              "internalType": "Address",
              "name": "makerAsset",
              "type": "uint256"
            },
            {
              "internalType": "Address",
              "name": "takerAsset",
              "type": "uint256"
            },
            {
              "internalType": "uint256",
              "name": "makingAmount",
              "type": "uint256"
            },
            {
              "internalType": "uint256",
              "name": "takingAmount",
              "type": "uint256"
            },
            {
              "internalType": "MakerTraits",
              "name": "makerTraits",
              "type": "uint256"
            },
            {
              "internalType": "bytes32",
              "name": "crossChainRecepient",
              "type": "bytes32"
            },
            {
              "internalType": "bytes32",
              "name": "suiAsset",
              "type": "bytes32"
            }
          ],
          "internalType": "struct IOrderMixin.Order",
          "name": "order",
          "type": "tuple"
        },
        {
          "internalType": "bytes",
          "name": "signature",
          "type": "bytes"
        },
        {
          "internalType": "uint256",
          "name": "amount",
          "type": "uint256"
        },
        {
          "internalType": "TakerTraits",
          "name": "takerTraits",
          "type": "uint256"
        }
      ],
      "name": "fillContractOrder",
      "outputs": [
        {
          "internalType": "uint256",
          "name": "",
          "type": "uint256"
        },
        {
          "internalType": "uint256",
          "name": "",
          "type": "uint256"
        },
        {
          "internalType": "bytes32",
          "name": "",
          "type": "bytes32"
        }
      ],
      "stateMutability": "nonpayable",
      "type": "function"
    },
    {
      "inputs": [
        {
          "components": [
            {
              "internalType": "uint256",
              "name": "salt",
              "type": "uint256"
            },
            {
              "internalType": "Address",
              "name": "maker",
              "type": "uint256"
            },
            {
              "internalType": "Address",
              "name": "receiver",
              "type": "uint256"
            },
            {
              "internalType": "Address",
              "name": "makerAsset",
              "type": "uint256"
            },
            {
              "internalType": "Address",
              "name": "takerAsset",
              "type": "uint256"
            },
            {
              "internalType": "uint256",
              "name": "makingAmount",
              "type": "uint256"
            },
            {
              "internalType": "uint256",
              "name": "takingAmount",
              "type": "uint256"
            },
            {
              "internalType": "MakerTraits",
              "name": "makerTraits",
              "type": "uint256"
            },
            {
              "internalType": "bytes32",
              "name": "crossChainRecepient",
              "type": "bytes32"
            },
            {
              "internalType": "bytes32",
              "name": "suiAsset",
              "type": "bytes32"
            }
          ],
          "internalType": "struct IOrderMixin.Order",
          "name": "order",
          "type": "tuple"
        },
        {
          "internalType": "bytes",
          "name": "signature",
          "type": "bytes"
        },
        {
          "internalType": "uint256",
          "name": "amount",
          "type": "uint256"
        },
        {
          "internalType": "TakerTraits",
          "name": "takerTraits",
          "type": "uint256"
        },
        {
          "internalType": "bytes",
          "name": "args",
          "type": "bytes"
        }
      ],
      "name": "fillContractOrderArgs",
      "outputs": [
        {
          "internalType": "uint256",
          "name": "",
          "type": "uint256"
        },
        {
          "internalType": "uint256",
          "name": "",
          "type": "uint256"
        },
        {
          "internalType": "bytes32",
          "name": "",
          "type": "bytes32"
        }
      ],
      "stateMutability": "nonpayable",
      "type": "function"
    },
    {
      "inputs": [
        {
          "components": [
            {
              "internalType": "uint256",
              "name": "salt",
              "type": "uint256"
            },
            {
              "internalType": "Address",
              "name": "maker",
              "type": "uint256"
            },
            {
              "internalType": "Address",
              "name": "receiver",
              "type": "uint256"
            },
            {
              "internalType": "Address",
              "name": "makerAsset",
              "type": "uint256"
            },
            {
              "internalType": "Address",
              "name": "takerAsset",
              "type": "uint256"
            },
            {
              "internalType": "uint256",
              "name": "makingAmount",
              "type": "uint256"
            },
            {
              "internalType": "uint256",
              "name": "takingAmount",
              "type": "uint256"
            },
            {
              "internalType": "MakerTraits",
              "name": "makerTraits",
              "type": "uint256"
            },
            {
              "internalType": "bytes32",
              "name": "crossChainRecepient",
              "type": "bytes32"
            },
            {
              "internalType": "bytes32",
              "name": "suiAsset",
              "type": "bytes32"
            }
          ],
          "internalType": "struct IOrderMixin.Order",
          "name": "order",
          "type": "tuple"
        },
        {
          "internalType": "bytes32",
          "name": "r",
          "type": "bytes32"
        },
        {
          "internalType": "bytes32",
          "name": "vs",
          "type": "bytes32"
        },
        {
          "internalType": "uint256",
          "name": "amount",
          "type": "uint256"
        },
        {
          "internalType": "TakerTraits",
          "name": "takerTraits",
          "type": "uint256"
        }
      ],
      "name": "fillOrder",
      "outputs": [
        {
          "internalType": "uint256",
          "name": "",
          "type": "uint256"
        },
        {
          "internalType": "uint256",
          "name": "",
          "type": "uint256"
        },
        {
          "internalType": "bytes32",
          "name": "",
          "type": "bytes32"
        }
      ],
      "stateMutability": "payable",
      "type": "function"
    },
    {
      "inputs": [
        {
          "components": [
            {
              "internalType": "uint256",
              "name": "salt",
              "type": "uint256"
            },
            {
              "internalType": "Address",
              "name": "maker",
              "type": "uint256"
            },
            {
              "internalType": "Address",
              "name": "receiver",
              "type": "uint256"
            },
            {
              "internalType": "Address",
              "name": "makerAsset",
              "type": "uint256"
            },
            {
              "internalType": "Address",
              "name": "takerAsset",
              "type": "uint256"
            },
            {
              "internalType": "uint256",
              "name": "makingAmount",
              "type": "uint256"
            },
            {
              "internalType": "uint256",
              "name": "takingAmount",
              "type": "uint256"
            },
            {
              "internalType": "MakerTraits",
              "name": "makerTraits",
              "type": "uint256"
            },
            {
              "internalType": "bytes32",
              "name": "crossChainRecepient",
              "type": "bytes32"
            },
            {
              "internalType": "bytes32",
              "name": "suiAsset",
              "type": "bytes32"
            }
          ],
          "internalType": "struct IOrderMixin.Order",
          "name": "order",
          "type": "tuple"
        },
        {
          "internalType": "bytes32",
          "name": "r",
          "type": "bytes32"
        },
        {
          "internalType": "bytes32",
          "name": "vs",
          "type": "bytes32"
        },
        {
          "internalType": "uint256",
          "name": "amount",
          "type": "uint256"
        },
        {
          "internalType": "TakerTraits",
          "name": "takerTraits",
          "type": "uint256"
        },
        {
          "internalType": "bytes",
          "name": "args",
          "type": "bytes"
        }
      ],
      "name": "fillOrderArgs",
      "outputs": [
        {
          "internalType": "uint256",
          "name": "",
          "type": "uint256"
        },
        {
          "internalType": "uint256",
          "name": "",
          "type": "uint256"
        },
        {
          "internalType": "bytes32",
          "name": "",
          "type": "bytes32"
        }
      ],
      "stateMutability": "payable",
      "type": "function"
    },
    {
      "inputs": [
        {
          "internalType": "uint256",
          "name": "value",
          "type": "uint256"
        },
        {
          "internalType": "bytes",
          "name": "data",
          "type": "bytes"
        }
      ],
      "name": "gt",
      "outputs": [
        {
          "internalType": "bool",
          "name": "",
          "type": "bool"
        }
      ],
      "stateMutability": "view",
      "type": "function"
    },
    {
      "inputs": [
        {
          "components": [
            {
              "internalType": "uint256",
              "name": "salt",
              "type": "uint256"
            },
            {
              "internalType": "Address",
              "name": "maker",
              "type": "uint256"
            },
            {
              "internalType": "Address",
              "name": "receiver",
              "type": "uint256"
            },
            {
              "internalType": "Address",
              "name": "makerAsset",
              "type": "uint256"
            },
            {
              "internalType": "Address",
              "name": "takerAsset",
              "type": "uint256"
            },
            {
              "internalType": "uint256",
              "name": "makingAmount",
              "type": "uint256"
            },
            {
              "internalType": "uint256",
              "name": "takingAmount",
              "type": "uint256"
            },
            {
              "internalType": "MakerTraits",
              "name": "makerTraits",
              "type": "uint256"
            },
            {
              "internalType": "bytes32",
              "name": "crossChainRecepient",
              "type": "bytes32"
            },
            {
              "internalType": "bytes32",
              "name": "suiAsset",
              "type": "bytes32"
            }
          ],
          "internalType": "struct IOrderMixin.Order",
          "name": "order",
          "type": "tuple"
        }
      ],
      "name": "hashOrder",
      "outputs": [
        {
          "internalType": "bytes32",
          "name": "",
          "type": "bytes32"
        }
      ],
      "stateMutability": "view",
      "type": "function"
    },
    {
      "inputs": [
        {
          "internalType": "uint96",
          "name": "series",
          "type": "uint96"
        }
      ],
      "name": "increaseEpoch",
      "outputs": [],
      "stateMutability": "nonpayable",
      "type": "function"
    },
    {
      "inputs": [
        {
          "internalType": "uint256",
          "name": "value",
          "type": "uint256"
        },
        {
          "internalType": "bytes",
          "name": "data",
          "type": "bytes"
        }
      ],
      "name": "lt",
      "outputs": [
        {
          "internalType": "bool",
          "name": "",
          "type": "bool"
        }
      ],
      "stateMutability": "view",
      "type": "function"
    },
    {
      "inputs": [
        {
          "internalType": "bytes",
          "name": "data",
          "type": "bytes"
        }
      ],
      "name": "not",
      "outputs": [
        {
          "internalType": "bool",
          "name": "",
          "type": "bool"
        }
      ],
      "stateMutability": "view",
      "type": "function"
    },
    {
      "inputs": [
        {
          "internalType": "uint256",
          "name": "offsets",
          "type": "uint256"
        },
        {
          "internalType": "bytes",
          "name": "data",
          "type": "bytes"
        }
      ],
      "name": "or",
      "outputs": [
        {
          "internalType": "bool",
          "name": "",
          "type": "bool"
        }
      ],
      "stateMutability": "view",
      "type": "function"
    },
    {
      "inputs": [],
      "name": "owner",
      "outputs": [
        {
          "internalType": "address",
          "name": "",
          "type": "address"
        }
      ],
      "stateMutability": "view",
      "type": "function"
    },
    {
      "inputs": [],
      "name": "pause",
      "outputs": [],
      "stateMutability": "nonpayable",
      "type": "function"
    },
    {
      "inputs": [],
      "name": "paused",
      "outputs": [
        {
          "internalType": "bool",
          "name": "",
          "type": "bool"
        }
      ],
      "stateMutability": "view",
      "type": "function"
    },
    {
      "inputs": [
        {
          "internalType": "bytes",
          "name": "permit",
          "type": "bytes"
        },
        {
          "internalType": "bytes",
          "name": "action",
          "type": "bytes"
        }
      ],
      "name": "permitAndCall",
      "outputs": [],
      "stateMutability": "payable",
      "type": "function"
    },
    {
      "inputs": [
        {
          "internalType": "address",
          "name": "maker",
          "type": "address"
        },
        {
          "internalType": "bytes32",
          "name": "orderHash",
          "type": "bytes32"
        }
      ],
      "name": "rawRemainingInvalidatorForOrder",
      "outputs": [
        {
          "internalType": "uint256",
          "name": "",
          "type": "uint256"
        }
      ],
      "stateMutability": "view",
      "type": "function"
    },
    {
      "inputs": [
        {
          "internalType": "address",
          "name": "maker",
          "type": "address"
        },
        {
          "internalType": "bytes32",
          "name": "orderHash",
          "type": "bytes32"
        }
      ],
      "name": "remainingInvalidatorForOrder",
      "outputs": [
        {
          "internalType": "uint256",
          "name": "",
          "type": "uint256"
        }
      ],
      "stateMutability": "view",
      "type": "function"
    },
    {
      "inputs": [],
      "name": "renounceOwnership",
      "outputs": [],
      "stateMutability": "nonpayable",
      "type": "function"
    },
    {
      "inputs": [
        {
          "internalType": "address",
          "name": "target",
          "type": "address"
        },
        {
          "internalType": "bytes",
          "name": "data",
          "type": "bytes"
        }
      ],
      "name": "simulate",
      "outputs": [],
      "stateMutability": "nonpayable",
      "type": "function"
    },
    {
      "inputs": [
        {
          "internalType": "address",
          "name": "newOwner",
          "type": "address"
        }
      ],
      "name": "transferOwnership",
      "outputs": [],
      "stateMutability": "nonpayable",
      "type": "function"
    },
    {
      "inputs": [],
      "name": "unpause",
      "outputs": [],
      "stateMutability": "nonpayable",
      "type": "function"
    },
    {
      "stateMutability": "payable",
      "type": "receive"
    }
  ],
  "transactionHash": "0xd947cd4aa27b0d460ab45f618e2598240e2574f596da2090458470b21a070e8d",
  "args": [
    "0x4200000000000000000000000000000000000006"
  ],
  "numDeployments": 1,
  "solcInputHash": "b6114e1d3d0e1cf4bfd11841a5b3772c",
  "bytecode": "0x6101a03462000252576001600160401b0390601f6200397638819003918201601f19168301929190848411838510176200023e5781602092849260409687528339810103126200025257516001600160a01b03918282169081830362000252578051906200006d8262000256565b601a825260208201907f31696e6368204c696d6974204f726465722050726f746f636f6c00000000000082528051620000a68162000256565b600181526020810190600d60fa1b8252620000c18562000272565b93610120948552620000d3826200043c565b9561014096875251902060e052519020966101009788524660a0528151602081017f8b73c3c69bb8fe3d512ecc4cf759cc79239f7b179b0ffacaa9a75d522b39400f815260a084830152601860c08301527f31696e6368204167677265676174696f6e20526f75746572000000000000000060e083015260e0606083015260018a830152601b60f91b858301524660808301523060a083015284825285820192828410908411176200023e57828452815190206080523060c052331562000227575050600354905195339082167f8be0079c531659141344cd1fd0a4f28419497f9722a3daafe3b4186f6b6457e05f80a36001600160a81b0319163360ff60a01b1916176003556101609283526101809384526133929586620005e4873960805186505060a05186505060c05186505060e0518650505185505051846117430152518361176d01525182601f015251815050f35b631e4fbdf760e01b82525f61014490910152602490fd5b634e487b7160e01b5f52604160045260245ffd5b5f80fd5b604081019081106001600160401b038211176200023e57604052565b8051602090818110156200030c5750601f825111620002ad57808251920151908083106200029f57501790565b825f19910360031b1b161790565b90604051809263305a27a960e01b82528060048301528251908160248401525f935b828510620002f2575050604492505f838284010152601f80199101168101030190fd5b8481018201518686016044015293810193859350620002cf565b906001600160401b0382116200023e575f54926001938481811c9116801562000431575b838210146200041d57601f8111620003e7575b5081601f84116001146200038157509282939183925f9462000375575b50501b915f199060031b1c1916175f5560ff90565b015192505f8062000360565b919083601f1981165f8052845f20945f905b88838310620003cc5750505010620003b3575b505050811b015f5560ff90565b01515f1960f88460031b161c191690555f8080620003a6565b85870151885590960195948501948793509081019062000393565b5f805284601f845f20920160051c820191601f860160051c015b8281106200041157505062000343565b5f815501859062000401565b634e487b7160e01b5f52602260045260245ffd5b90607f169062000330565b805160209081811015620004c85750601f8251116200046957808251920151908083106200029f57501790565b90604051809263305a27a960e01b82528060048301528251908160248401525f935b828510620004ae575050604492505f838284010152601f80199101168101030190fd5b84810182015186860160440152938101938593506200048b565b9192916001600160401b0381116200023e5760019182548381811c91168015620005d8575b828210146200041d57601f8111620005a2575b5080601f83116001146200053e5750819293945f9262000532575b50505f19600383901b1c191690821b17905560ff90565b015190505f806200051b565b90601f19831695845f52825f20925f905b8882106200058a575050838596971062000571575b505050811b01905560ff90565b01515f1960f88460031b161c191690555f808062000564565b8087859682949686015181550195019301906200054f565b835f5283601f835f20920160051c820191601f850160051c015b828110620005cc57505062000500565b5f8155018490620005bc565b90607f1690620004ed56fe608060408181526004918236101561005c575b50361561001d575f80fd5b7f00000000000000000000000000000000000000000000000000000000000000006001600160a01b0316330361004f57005b51631b10b0f960e01b8152fd5b5f905f3560e01c90816305b1ea03146122b1575080630d2c7c161461220e5780630d69e8c414611bbd578063143e86a714611b7b57806315169dec14611b295780633644e51514611b0c5780633f4ba83a14611a9c578063435b978914611a435780634f38e2b814611a125780635816d7231461197c5780635c975abb146119555780636fe7b0ba14611924578063715018a6146118c757806374261145146118ab5780638456cb591461184a57806384b0196e1461172b57806389e7c650146116905780638da5cb5b146116675780639b7aaf321461163e578063b68fb0201461161b578063b7000214146111d0578063bd61951d14611151578063bf15fcd814611118578063bf797959146110c0578063bfa75143146110a4578063c26b374414610bb8578063c2a4075314610b77578063c3cf804314610afd578063ca4ece2214610ac1578063ce3d710a14610a72578063d4a05c93146102c5578063f2fde38b146102365763fcea9e4e036100125790346102325780600319360112610232576101e861238c565b91602435906001600160601b038216820361022e576001600160a01b0390931660a09190911b6001600160a01b0319161782526002602090815291819020549051908152f35b5f80fd5b5080fd5b5091346102c15760203660031901126102c15761025161238c565b9061025a6127b1565b6001600160a01b039182169283156102ab575050600354826001600160601b0360a01b821617600355167f8be0079c531659141344cd1fd0a4f28419497f9722a3daafe3b4186f6b6457e05f80a380f35b51631e4fbdf760e01b8152908101849052602490fd5b8280fd5b5036600319016101e0811261023257610140136105bb5761018435926101a435926101c4356001600160401b038111610a6e5761030861030f913690850161235f565b90866126fb565b91909693506103276103229693966129fa565b6127dd565b956103318761282d565b9760a43590818a146109c0575b610346612cda565b6103508484612efe565b90156109ba575060e4359b69ffffffffffffffffffff808e1680159182156109ae575b50501561099e578c64ffffffffff809160501c168015159081610994575b50610984578d600160fa1b811661091f575b5050846108d0575b600160ff1b908c82161561081c57908b9c828d8d9e9b9a999897969594108b8218028b189e8f9e8f916103df928a8a6130d9565b9e6001600160b81b03909216918f836107ca575b505050505b8d161515806107c0575b6107b0578b8b02156107a0576104178d6126db565b156107755760018060a01b03602435168752856020528887208d600160ff63ffffffff8360801c169260781c161b91818a52806020528b8a2054918380841614610765578a5260205217898820555b600160fc1b8d1661069c575b60018060a01b03945f8051602061333d83398151915260c08b8860243516958682519261012435845261010435602085015283015289608435166060830152608082015260c43560a0820152a16013811161060c575b5050346105fc57899a9b600160fb9b999a9b1b1661052c575b8b886105288c8c5f8051602061331d83398151915281610501868f6129ed565b8151908582526020820152a151938493846040919493926060820195825260208201520152565b0390f35b909192939495965061053e83836131c8565b909490918286601382116105cc575b50501693843b156105c8578694926105848b959387938f8f908d918f519c8d9b8c9a8b9963727779bb60e01b8b5233938b0161292a565b03925af180156105be5790869392916105a1575b808080806104e1565b819293506105ae90612522565b6105bb5790818592610598565b80fd5b84513d84823e3d90fd5b8680fd5b8197508094506105dc9250612482565b60601c91856014116105f8576014019460131901915f8061054d565b8780fd5b8751631841b4e160e01b81528590fd5b6106168183612482565b60601c918160141161069857823b15610698578b9260148f8f946106648f958f8f98908f958d928f9a978c98519d8e9c8d9b8c9a633a4a3c9d60e11b8c526013190198019633938b0161292a565b03925af1801561068e57908791156104c85761067f90612522565b61068a57855f6104c8565b8580fd5b89513d89823e3d90fd5b8880fd5b6106a68484613195565b6001600160a01b036024358116828460138211610735575b50501691823b156107315788928f8f8f938f8f968f97928c938e968a966106fa95519c8d9b8c9a8b99632810689560e11b8b5233938b0161292a565b03925af1801561072757908891610713575b5050610472565b61071c90612522565b6105c857865f61070c565b8a513d8a823e3d90fd5b8980fd5b8195508094506107459250612482565b60601c9183601411610761576014019260131901915f806106be565b8a80fd5b8c5163527b154b60e11b81528a90fd5b6024356001600160a01b03168752600560209081528988208b895290528887208b8903199055610466565b8851637dd2d13b60e11b81528690fd5b88516323bc005f60e21b81528690fd5b50818b1415610402565b8282036107f357915050116107e3575b5f808d8f6103f3565b895163fb8ae12960e01b81528790fd5b6108069261080091612890565b92612890565b10156107da57895163fb8ae12960e01b81528790fd5b90818c99989796959493929d6108358d8c848a8a613018565b9d8e116108a4575b6001600160b81b0316908e8e83610858575b505050506103f8565b8282036108815791505010610871575b5f808e8e61084f565b895163240f51c960e11b81528790fd5b61088e9261080091612890565b111561086857895163240f51c960e11b81528790fd5b9c50809d50899c6108b88d8c808a8a6130d9565b9e8f111561083d578b51637f902a9360e01b81528990fd5b6108da858561314b565b806108e7575b50506103ab565b6108f1913061278d565b81610914575b5015610904575f806108e0565b8851635b314e0160e11b81528790fd5b60019150145f6108f7565b610928906126db565b6109745760a08e811c8216901b6024356001600160a01b0316175f9081526002602052604090205460788f901c90911603610964575f8d6103a3565b88516371f4582960e11b81528790fd5b8951639e744e2560e01b81528890fd5b89516362b439dd60e11b81528890fd5b905042115f610391565b8851636a6fed7f60e11b81528790fd5b33161490505f80610373565b87528587fd5b6024356001600160a01b0316600160fd1b8c16156109df575b5061033e565b6109e985856131f9565b60148110156109fa575b50506109d9565b610a048183612482565b60601c908060141161076157906014610a27939260131901920190843091612aa2565b50610a3360e4356126db565b15610a40575b80806109f3565b8752600560205287872089885260205287872054610a5e575f610a39565b875163c5f2be5160e01b81528690fd5b8380fd5b50903461023257606036600319011261023257602090610ab8610a9361238c565b6001600160a01b031660243560a01b175f908152600260205260409020546044351490565b90519015158152f35b50346105bb576020610ae083610ad6366123a2565b909391933061278d565b81939193610af3575b5050519015158152f35b1091508380610ae9565b509034610232576020366003190112610232577f099133aefc2c2d1e56f8ef3622ec8e80979a0713fc9c4e1497740efcf8099396610b39612349565b916001600160601b0360a01b8360a01b1633175f526002602052805f2060018154018091556001600160601b0382519416845260208401523392a280f35b50903461023257806003193601126102325760209181906001600160a01b03610b9e61238c565b168152600584528181206024358252845220549051908152f35b50346105bb5736600319016101a0811261023257610140136105bb57610144356001600160401b03811161023257610bf3903690850161235f565b505061016435906101843592610c0a6103226129fa565b91610c148361282d565b90610c1d612cda565b610c25612f98565b901561109d575060e43569ffffffffffffffffffff8082168015918215611091575b5050156110815764ffffffffff808260501c168015159081611077575b5061106757600160fa1b8216611003575b50600160ff1b87811615610f4f5783871084881802841896610c9c8860c43560a4356132d7565b986001600160b81b03169081610f04575b50505b8116151580610ef8575b610ee85786860215610ed857610ccf816126db565b15610ea95760018060a01b03602435168252876020528382209763ffffffff8260801c1698600160ff8460781c161b908a85528060205286852054908280831614610e9957899a9b869a98999a5260205217868420555b600160fc1b8216610e14575b60018060a01b03915f8051602061333d83398151915260c0846024351694895190610124358252610104356020830152868b83015260843516606082015260a435608082015260c43560a0820152a1600160fb1b16610dad575b505050826105016105289594935f8051602061331d833981519152936129ed565b9080929394503b156102c15786889284928389610de0898b519889978896879563727779bb60e01b875233918701612992565b03925af180156105be579086939291610dfa575b80610d8c565b81929350610e0790612522565b6105bb5790818592610df4565b92935090916024356001600160a01b0316803b15610a6e57838986928a838b610e538c5197889687958694632810689560e11b865233908d8701612992565b03925af18015610e8f5790889594939291610e6f575b50610d32565b83949550610e809093919293612522565b6102c15790869392915f610e69565b86513d86823e3d90fd5b875163527b154b60e11b81528490fd5b85969760018060a0989697981b0360243516835260056020528583208784526020528484031986842055610d26565b8351637dd2d13b60e11b81528890fd5b83516323bc005f60e21b81528890fd5b5060a435861415610cba565b88818103610f2c5750508811610f1c575b5f80610cad565b845163fb8ae12960e01b81528990fd5b610800610f39928c612890565b1015610f1557845163fb8ae12960e01b81528990fd5b8697969760a4359760c43598610f66838b836132b0565b99878b11610fd3575b50506001600160b81b03169081610f88575b5050610cb0565b89818103610fb05750508710610fa0575b5f80610f81565b845163240f51c960e11b81528990fd5b610800610fbd928b612890565b1115610f9957845163240f51c960e11b81528990fd5b610fe4929b508780929b509a6132d7565b98818a11610ff3575f80610f6f565b8651637f902a9360e01b81528b90fd5b61100c826126db565b6110575760a082811c8216901b6024356001600160a01b0316175f90815260026020526040902054607883901c90911603611047575f610c75565b83516371f4582960e11b81528890fd5b8451639e744e2560e01b81528990fd5b84516362b439dd60e11b81528990fd5b905042115f610c64565b8351636a6fed7f60e11b81528890fd5b33161490505f80610c47565b8792508152fd5b50903461023257602090610ab86110ba366123a2565b9161267f565b50346105bb5760203660031901126105bb578235906001600160401b0382116105bb57506110f66020936110fd9236910161235f565b903061278d565b8192919261110f575b50519015158152f35b1591505f611106565b50346105bb575061113161112b36612443565b9161278d565b919015611142576020925051908152f35b51631f1b8f6160e01b81529050fd5b50346105bb57806111c49161116536612443565b908187519283928337810184815203915af4913d156111c8573d9061118982612664565b9161119682519384612564565b82523d5f602084013e5b805194859463032695f960e31b8652151590850152602484015260448301906123d5565b0390fd5b6060906111a0565b5036600319016101c0811261023257610140136105bb5761018435916101a435936111fc6103226129fa565b926112068461282d565b9160a43590611213612cda565b61121b612f98565b9015611616575060e43569ffffffffffffffffffff808216801591821561160a575b5050156115fb5764ffffffffff808260501c1680151590816115f1575b506115e157600160fa1b821661157e575b50600160ff1b898116156114d157858910868a18028618986112908a60c435876132d7565b9a6001600160b81b03169081611485575b50505b811615158061147b575b61146c578888021561145d576112c3816126db565b156114325760018060a01b036024351684528160205285842063ffffffff8260801c16600160ff8460781c161b91818752806020528887205491838084161461142257875260205217868520555b600160fc1b81166113ad575b5f8051602061333d83398151915260c060018060a01b03806024351695895191610124358352610104356020840152878b840152608435166060830152608082015260c43560a0820152a13461139e57879493929190600160fb1b16610dad57505050826105016105289594935f8051602061331d833981519152936129ed565b508451631841b4e160e01b8152fd5b6024356001600160a01b0316803b1561141e5784898b9285838c6113e78c8e5198899788968795632810689560e11b875233918701612992565b03925af1801561141457908591611400575b505061131d565b61140990612522565b610a6e57835f6113f9565b87513d87823e3d90fd5b8480fd5b895163527b154b60e11b81528690fd5b6024356001600160a01b03168452600560209081528685208886529052858420888603199055611311565b508451637dd2d13b60e11b8152fd5b5084516323bc005f60e21b8152fd5b50828814156112ae565b8a8c8282036114ae579150501161149e575b5f806112a1565b865163fb8ae12960e01b81528390fd5b6114bb9261080091612890565b101561149757865163fb8ae12960e01b81528390fd5b8899989960c435996114e4828c886132b0565b9a888c11611550575b506001600160b81b03169081611505575b50506112a4565b8b81810361152d575050891061151d575b5f806114fe565b865163240f51c960e11b81528390fd5b61080061153a928d612890565b111561151657865163240f51c960e11b81528390fd5b9a509a5061156087809b876132d7565b9a818c1161156e575f6114ed565b8851637f902a9360e01b81528590fd5b611587826126db565b6115d15760a082811c8216901b6024356001600160a01b0316175f90815260026020526040902054607883901c909116036115c2575f61126b565b5084516371f4582960e11b8152fd5b8651639e744e2560e01b81528390fd5b86516362b439dd60e11b81528390fd5b905042115f61125a565b508451636a6fed7f60e11b8152fd5b33161490505f8061123d565b835282fd5b509190346102c1573660031901126102325761163b9060243590356125a9565b80f35b50903461023257610140366003190112610232576020906116606103226129fa565b9051908152f35b50903461023257816003193601126102325760035490516001600160a01b039091168152602090f35b509190346102c157806003193601126102c1576001600160401b0391803583811161141e576116c29036908301612413565b909360243590811161068a576116db9036908401612413565b92909383830361171e575050845b8181106116f4578580f35b806117186117056001938589612585565b35611711838789612585565b35906125a9565b016116e9565b51631b2f9b3b60e31b8152fd5b509190346102c157826003193601126102c1576117677f0000000000000000000000000000000000000000000000000000000000000000612cfb565b926117917f0000000000000000000000000000000000000000000000000000000000000000612e1c565b9082519260209260208501958587106001600160401b0388111761183757509260206117ed8388966117e0998b9996528686528151998a99600f60f81b8b5260e0868c015260e08b01906123d5565b91898303908a01526123d5565b924660608801523060808801528460a088015286840360c088015251928381520193925b82811061182057505050500390f35b835185528695509381019392810192600101611811565b604190634e487b7160e01b5f525260245ffd5b50903461023257816003193601126102325760207f62e78cea01bee320cd4e420270b5ea74000d11b0c9f74754ebdbfc544b05a258916118886127b1565b611890612cda565b6003805460ff60a01b1916600160a01b17905551338152a180f35b50903461023257602090610ab86118c1366123a2565b916124cb565b50346105bb57806003193601126105bb576118e06127b1565b600380546001600160a01b031981169091555f906001600160a01b03167f8be0079c531659141344cd1fd0a4f28419497f9722a3daafe3b4186f6b6457e08280a380f35b50346105bb57602061193983610ad6366123a2565b8193919361194b575050519015158152f35b1491508380610ae9565b50903461023257816003193601126102325760209060ff60035460a01c1690519015158152f35b509080600319360112610232576001600160401b03908335828111610a6e576119a8903690860161235f565b94909260243590811161141e576119c19136910161235f565b9290946119ce8183612482565b60601c908060141161068a57926119f78593879693601488976013190192019030903390612aa2565b505195863784305af4903d90833e15611a0e573d90f35b3d90fd5b50346105bb576020611a2783610ad6366123a2565b81939193611a39575050519015158152f35b1191508380610ae9565b50346105bb57816003193601126105bb5781906001600160a01b03611a6661238c565b168152600560205281812060243582526020522054908115611a8d57602092505190198152f35b5163aa3eef9560e01b81529050fd5b5091346102c157826003193601126102c157611ab66127b1565b6003549060ff8260a01c1615611afe575060ff60a01b1916600355513381527f5db9ee0a495bf2e6ff9c91a7834c1ba4fdd244a5e8aa4e537bd38aeae4b073aa90602090a180f35b8251638dfc202b60e01b8152fd5b5090346102325781600319360112610232576020906116606129fa565b50346105bb5760203660031901126105bb578235906001600160401b0382116105bb57506110f6602093611b5f9236910161235f565b81929192611b705750519015158152f35b60011491505f611106565b5091346102c157816003193601126102c15760209282916001600160a01b03611ba261238c565b168252845281812060243560081c8252845220549051908152f35b5082903461022e5736600319016101c0811261022e576101401361022e576001600160401b03926101443584811161022e57611bfc903690850161235f565b5050610164359061018435946101a43590811161022e57611c23611c2a913690870161235f565b90876126fb565b96935091611c396103226129fa565b96611c438861282d565b96611c4c612cda565b611c568484612efe565b9015612207575060e4359a69ffffffffffffffffffff808d1680159182156121fb575b5050156121eb5764ffffffffff808d60501c1680151590816121e1575b506121d157600160fa1b8d1661216d575b508461211e575b600160ff1b918183161561206e57918a9b95939183611ce08c809e9d9b9a9896108b8318028b189e8f9e8f89896130d9565b9d6001600160b81b03909216918e83612022575b505050505b8c16151580612016575b612006578a8a0215611ff657611d188c6126db565b15611fce5760018060a01b03602435165f5284602052875f208c600160ff63ffffffff8360801c169260781c161b91815f52806020528a5f2054918380841614611fbe575f5260205217885f20555b600160fc1b8c16611f02575b60018060a01b03938460243516915f8051602061333d83398151915260c08b51610124358152610104356020820152858d8201528860843516606082015260a435608082015260c43560a0820152a160138111611e81575b5050899a9b600160fb9b999a9b1b16611dfe578b886105288c8c5f8051602061331d83398151915281610501868f6129ed565b9091929394959650611e1083836131c8565b90949091828660138211611e555750501693843b156105c8578694926105848b959387938f8f908d918f519c8d9b8c9a8b9963727779bb60e01b8b5233938b0161292a565b819750809450611e659250612482565b60601c91856014116105f8576014019460131901918d8061054d565b611e8b8183612482565b60601c918160141161069857823b15610698578b9260148f8f94611ed98f958f8f98908f958d928f9a978c98519d8e9c8d9b8c9a633a4a3c9d60e11b8c526013190198019633938b0161292a565b03925af1801561068e57611eee575b80611dcb565b611ef88791612522565b61068a578c611ee8565b611f0c8383613195565b6001600160a01b036024358116828460138211611f92575b50501691823b1561022e578792868f8f8f948f968f91611f60925f99958d958b97519c8d9b8c9a8b99632810689560e11b8b5233938b0161292a565b03925af18015611f8857611f75575b50611d73565b611f80919650612522565b5f948c611f6f565b89513d5f823e3d90fd5b819550809450611fa29250612482565b60601c918360141161022e576014019260131901915f80611f24565b8b5163527b154b60e11b81528990fd5b60018060a01b03602435165f526005602052875f20895f5260205289870319885f2055611d67565b8751637dd2d13b60e11b81528590fd5b87516323bc005f60e21b81528590fd5b5060a4358a1415611d03565b82820361204b579150501161203b575b8d808c8e611cf4565b885163fb8ae12960e01b81528690fd5b6120589261080091612890565b101561203257885163fb8ae12960e01b81528690fd5b9a9492909998969593918b6120868b8a838888613018565b9b898d116120f2575b6001600160b81b031690816120a6575b5050611cf9565b8d8d8282036120cf57915050106120bf575b8d8061209f565b885163240f51c960e11b81528690fd5b6120dc9261080091612890565b11156120b857885163240f51c960e11b81528690fd5b9b50809c50889b6121068c8b8089896130d9565b9d8e111561208f578a51637f902a9360e01b81528890fd5b612128858561314b565b80612135575b5050611cae565b61213f913061278d565b81612162575b5015612152578c8061212e565b8751635b314e0160e11b81528b90fd5b60019150148d612145565b6121768d6126db565b6121c15760a08d811c8216901b6024356001600160a01b0316175f9081526002602052604090205460788e901c909116036121b1578c611ca7565b87516371f4582960e11b81528b90fd5b8851639e744e2560e01b81528c90fd5b88516362b439dd60e11b81528c90fd5b905042118e611c96565b8751636a6fed7f60e11b81528b90fd5b33161490508d80611c79565b8a905f525ffd5b50503461022e578060031936011261022e57612228612349565b9160243590811580156122a7575b6122995750907f099133aefc2c2d1e56f8ef3622ec8e80979a0713fc9c4e1497740efcf8099396916001600160601b0360a01b8460a01b1633175f526002602052815f20908154018091556001600160601b0382519416845260208401523392a2005b825163555fbbbf60e01b8152fd5b5060ff8211612236565b8490843461022e578060031936011261022e578235916122d0836126db565b1561233b57507fcda0f7e73d07bdb14b141f2cf4745926629a1b63e7c6a3dd8a80232cb459a8509192335f52602052805f209263ffffffff8160801c1693845f52602052815f2090600160ff6024359260781c161b17815417809155815193845260208401523392a2005b63435ffd6560e11b81528390fd5b600435906001600160601b038216820361022e57565b9181601f8401121561022e578235916001600160401b03831161022e576020838186019501011161022e57565b600435906001600160a01b038216820361022e57565b90604060031983011261022e5760043591602435906001600160401b03821161022e576123d19160040161235f565b9091565b91908251928382525f5b8481106123ff575050825f602080949584010152601f8019910116010190565b6020818301810151848301820152016123df565b9181601f8401121561022e578235916001600160401b03831161022e576020808501948460051b01011161022e57565b90604060031983011261022e576004356001600160a01b038116810361022e5791602435906001600160401b03821161022e576123d19160040161235f565b6bffffffffffffffffffffffff1990358181169392601481106124a457505050565b60140360031b82901b16169150565b9093929384831161022e57841161022e578101920390565b929091925f5b63ffffffff8216908115612518576110f6826124ee9288886124b3565b8161250d575b50612503579060201c906124d1565b5050915050600190565b60019150145f6124f4565b5050509150505f90565b6001600160401b03811161253557604052565b634e487b7160e01b5f52604160045260245ffd5b604081019081106001600160401b0382111761253557604052565b90601f801991011681019081106001600160401b0382111761253557604052565b91908110156125955760051b0190565b634e487b7160e01b5f52603260045260245ffd5b906125b3826126db565b1561261e5750335f52600460205260405f209063ffffffff8160801c1691825f52602052600160ff60405f209260781c161b81541780915560405191825260208201527fcda0f7e73d07bdb14b141f2cf4745926629a1b63e7c6a3dd8a80232cb459a85060403392a2565b7f5152abf959f6564662358c2e52b702259b78bac5ee7842a0f01937e670efcc7d9150602090335f526005825260405f20815f5282525f1960405f2055604051908152a1565b6001600160401b03811161253557601f01601f191660200190565b929091925f5b63ffffffff82169081156126d0576110f6826126a29288886124b3565b90159081156126c4575b506126bb579060201c90612685565b50509150505f90565b6001915014155f6126ac565b505050915050600190565b600160ff1b811615801591906126ef575090565b600160fe1b1615919050565b90929190600160fb1b811615612784576127158285612482565b60601c938260141161022e576014019160131901925b62ffffff60e083901c81169485156127765780861161022e576127529085968181976124b3565b919091935b60c81c1692831561276c57831161022e579190565b505090505f905f90565b92939094505f945f94612757565b3393919261272b565b915f906020928294826040519283375afa60203d141691826127ab57565b5f519150565b6003546001600160a01b031633036127c557565b60405163118cdaa760e01b8152336004820152602490fd5b6042906040517f778d0eb8abfef54991b55642fe738a2ed20db1e0cfd7992c3deacb2606d4b70a8152610140908160046020830137206040519161190160f01b8352600283015260228201522090565b61283860e4356126db565b1561285d575060a435905b811561284b57565b604051637b8fded160e11b8152600490fd5b60018060a01b03602435165f52600560205260405f20905f5260205261288a60405f205460a43590612eed565b90612843565b818102929181159184041417156128a357565b634e487b7160e01b5f52601160045260245ffd5b6004358152602435602082015260443560408201526064356060820152608435608082015260a43560a082015260c43560c082015260e43560e08201526101043561010082015261012061012435910152565b908060209392818452848401375f828201840152601f01601f1916010190565b949161298f999794916129569199979499610220612947896128b7565b806101408a015288019161290a565b6101608601989098526001600160a01b03166101808501526101a08401526101c08301526101e08201528084036102009091015261290a565b90565b935f93610260969293856102206129a8896128b7565b806101408a01528801526102409461016088015260018060a01b03166101808701526101a08601526101c08501526101e084015280610200840152820152015f815290565b919082039182116128a357565b60405160208101907f8b73c3c69bb8fe3d512ecc4cf759cc79239f7b179b0ffacaa9a75d522b39400f825260a06040820152601860c08201527f31696e6368204167677265676174696f6e20526f75746572000000000000000060e082015260e060608201526001610100820152610120601b60f91b818301524660808301523060a0830152815261014081018181106001600160401b038211176125355760405251902090565b60405194929160648414612c745783604814612c02578360e014612bdf578361010014612bb95783606014612b1a5750505061016014612aeb57636827585760e01b8252600482fd5b6101645f9261016084936302b67b5760e41b83526004830137826e22d473030f116ddee9f6b43ac78ba35af190565b6302b67b5760e41b8652600486015260248501525f938493610164935090916020916040916014826050870137861965ffffffffffff9181601485013560e01c0183166064880152601884013560e01c608488015260a4870152601c83013560e01c011660c485015261010060e4850152816101048501528280820161012486013701610144830137826e22d473030f116ddee9f6b43ac78ba35af190565b5061010492505f94915084939061010085926323f2ebc360e21b855260048501375af190565b5060e492505f94915084939060e0859263d505accf821b855260048501375af190565b6101049350905f959294869586936323f2ebc360e21b86526004860152602485015260206008602883013592803560e01c60448801528519600482013560e01c016064880152600160848801528360ff1c601b0160a48801520160c48601376001600160ff1b031660e48401525af190565b60e49350905f9592948695869363d505accf60e01b865260048601526024850152602060246044830135928281604489013785198382013560e01c0160648801528360ff1c601b0160848801520160a48601376001600160ff1b031660c48401525af190565b60ff60035460a01c16612ce957565b60405163d93c066560e01b8152600490fd5b60ff8114612d395760ff811690601f8211612d275760405191612d1d83612549565b8252602082015290565b604051632cd44ac360e21b8152600490fd5b506040515f8054906001908260011c60018416928315612e12575b6020948583108514612dfe578287528694908115612dde5750600114612d83575b505061298f92500382612564565b5f8080527f290decd9548b62a8d60345a988386fc84ba6bc95484008f6362f93160ef3e56395935091905b818310612dc657505061298f93508201015f80612d75565b85548784018501529485019486945091830191612dae565b91505061298f94925060ff191682840152151560051b8201015f80612d75565b634e487b7160e01b5f52602260045260245ffd5b90607f1690612d54565b60ff8114612e3e5760ff811690601f8211612d275760405191612d1d83612549565b506040515f60018054918260011c60018416928315612ee3575b6020948583108514612dfe578287528694908115612dde5750600114612e8657505061298f92500382612564565b9093915060015f527fb10e2d527612073b26eecdfd717e6a320cf44b4afac2b0732d9fcbe2b7fa0cf6935f915b818310612ecb57505061298f93508201015f80612d75565b85548784018501529485019486945091830191612eb3565b90607f1690612e58565b908115612ef957501990565b905090565b9060e435600160f91b1615612f84578015612f7557612f1c81612664565b90612f2a6040519283612564565b8082526020820192368282011161022e57815f926020928637830101525190206001600160a01b0390811660043590911603612f68575b6001905f90565b5f9063dc11ee6b60e01b90565b505f9163b2d25e4960e01b9150565b905015612f61575f906374896a7b60e01b90565b5f60e435600160f91b1615612fb3579063b2d25e4960e01b90565b506001905f90565b9390612fe59061298f999794989693610200612fd6886128b7565b8061014089015287019161290a565b6101608501979097526001600160a01b03166101808401526101a08301526101c08201528084036101e09091015261290a565b93919092613026848661322c565b909281156130c3576130388285612482565b60601c938260141161022e57602096601494613074936040519a8b998a988998630ccb867760e41b8a5260131901960194339260048a01612fbb565b03915afa9081156130b8575f91613089575090565b90506020813d6020116130b0575b816130a460209383612564565b8101031261022e575190565b3d9150613097565b6040513d5f823e3d90fd5b94505050505061298f915060c43560a4356132b0565b939190926130e7848661325f565b90928115613135576130f98285612482565b60601c938260141161022e57602096601494613074936040519a8b998a98899863799b592f60e11b8a5260131901960194339260048a01612fbb565b94505050505061298f915060c43560a4356132d7565b9190916020831061318d5780359063ffffffff808360601c169260801c1693601f1901841161317e578101602001920390565b6309605a0160e41b5f5260045ffd5b505f91508190565b9190916020831061318d5780359063ffffffff808360a01c169260c01c1693601f1901841161317e578101602001920390565b9190916020831061318d5780359063ffffffff8260c01c169160e01c93601f1901841161317e578101602001920390565b9190916020831061318d5780359063ffffffff808360801c169260a01c1693601f1901841161317e578101602001920390565b9190916020831061318d5780359063ffffffff808360201c169260401c1693601f1901841161317e578101602001920390565b9190916020831061318d5780359063ffffffff808360401c169260601c1693601f1901841161317e578101602001920390565b811561329c570490565b634e487b7160e01b5f52601260045260245ffd5b80831760801c156132cd576132c89061298f93612890565b613292565b61298f9202613292565b9181811760801c1561330c57906132ed91612890565b908082018092116128a3575f1982019182116128a35761298f91613292565b61298f92910281015f190161329256fefec331350fce78ba658e082a71da20ac9f8d798a99b3c79681c8440cbfe77e07509b4ab6d1a4b33e89330b5dffdb580caf0e2ca29a65339e7d21c3aa7b0bf49aa264697066735822122078198232026d1b3408677a8da02f8287c18404b78fdd00a79e6cee54c437adcd64736f6c63430008170033",
  "devdoc": {
    "errors": {
      "BitInvalidatedOrder()": [
        {
          "details": "The error is thrown when an attempt is made to invalidate an already invalidated entity."
        }
      ],
      "EnforcedPause()": [
        {
          "details": "The operation failed because the contract is paused."
        }
      ],
      "ExpectedPause()": [
        {
          "details": "The operation failed because the contract is not paused."
        }
      ],
      "OwnableInvalidOwner(address)": [
        {
          "details": "The owner is not a valid owner account. (eg. `address(0)`)"
        }
      ],
      "OwnableUnauthorizedAccount(address)": [
        {
          "details": "The caller account is not authorized to perform an operation."
        }
      ],
      "RemainingInvalidatedOrder()": [
        {
          "details": "The error is thrown when an attempt is made to invalidate an already invalidated entity."
        }
      ]
    },
    "events": {
      "BitInvalidatorUpdated(address,uint256,uint256)": {
        "params": {
          "maker": "Maker address",
          "slotIndex": "Slot index that was updated",
          "slotValue": "New slot value"
        }
      },
      "EIP712DomainChanged()": {
        "details": "MAY be emitted to signal that the domain could have changed."
      },
      "OrderCancelled(bytes32)": {
        "params": {
          "orderHash": "Hash of the order"
        }
      },
      "OrderFilled(bytes32,uint256)": {
        "params": {
          "orderHash": "Hash of the order",
          "remainingAmount": "Amount of the maker asset that remains to be filled"
        }
      },
      "Paused(address)": {
        "details": "Emitted when the pause is triggered by `account`."
      },
      "Unpaused(address)": {
        "details": "Emitted when the pause is lifted by `account`."
      }
    },
    "kind": "dev",
    "methods": {
      "DOMAIN_SEPARATOR()": {
        "details": "Returns the domain separator for the current chain (EIP-712)"
      },
      "and(uint256,bytes)": {
        "returns": {
          "_0": "Result True if calls to all targets returned True. Otherwise, false"
        }
      },
      "arbitraryStaticCall(address,bytes)": {
        "returns": {
          "_0": "Result Bytes transmuted to uint256"
        }
      },
      "eip712Domain()": {
        "details": "See {IERC-5267}."
      },
      "epochEquals(address,uint256,uint256)": {
        "returns": {
          "_0": "Result True if `maker` has specified epoch. Otherwise, false"
        }
      },
      "eq(uint256,bytes)": {
        "params": {
          "value": "Value to test"
        },
        "returns": {
          "_0": "Result True if call to target returns the same value as `value`. Otherwise, false"
        }
      },
      "gt(uint256,bytes)": {
        "params": {
          "value": "Value to test"
        },
        "returns": {
          "_0": "Result True if call to target returns value which is bigger than `value`. Otherwise, false"
        }
      },
      "lt(uint256,bytes)": {
        "params": {
          "value": "Value to test"
        },
        "returns": {
          "_0": "Result True if call to target returns value which is lower than `value`. Otherwise, false"
        }
      },
      "not(bytes)": {
        "returns": {
          "_0": "Result True if call to target returns 0. Otherwise, false"
        }
      },
      "or(uint256,bytes)": {
        "returns": {
          "_0": "Result True if call to any target returned True. Otherwise, false"
        }
      },
      "owner()": {
        "details": "Returns the address of the current owner."
      },
      "paused()": {
        "details": "Returns true if the contract is paused, and false otherwise."
      },
      "renounceOwnership()": {
        "details": "Leaves the contract without owner. It will not be possible to call `onlyOwner` functions. Can only be called by the current owner. NOTE: Renouncing ownership will leave the contract without an owner, thereby disabling any functionality that is only available to the owner."
      },
      "transferOwnership(address)": {
        "details": "Transfers ownership of the contract to a new account (`newOwner`). Can only be called by the current owner."
      }
    },
    "title": "##1inch Limit Order Protocol v4",
    "version": 1
  },
  "userdoc": {
    "events": {
      "BitInvalidatorUpdated(address,uint256,uint256)": {
        "notice": "Emitted when order with `useBitInvalidator` gets cancelled"
      },
      "OrderCancelled(bytes32)": {
        "notice": "Emitted when order without `useBitInvalidator` gets cancelled"
      },
      "OrderFilled(bytes32,uint256)": {
        "notice": "Emitted when order gets filled"
      }
    },
    "kind": "user",
    "methods": {
      "advanceEpoch(uint96,uint256)": {
        "notice": "Advances nonce by specified amount"
      },
      "and(uint256,bytes)": {
        "notice": "Calls every target with corresponding data"
      },
      "arbitraryStaticCall(address,bytes)": {
        "notice": "Performs an arbitrary call to target with data"
      },
      "bitInvalidatorForOrder(address,uint256)": {
        "notice": "See {IOrderMixin-bitInvalidatorForOrder}."
      },
      "bitsInvalidateForOrder(uint256,uint256)": {
        "notice": "See {IOrderMixin-bitsInvalidateForOrder}."
      },
      "cancelOrder(uint256,bytes32)": {
        "notice": "See {IOrderMixin-cancelOrder}."
      },
      "cancelOrders(uint256[],bytes32[])": {
        "notice": "See {IOrderMixin-cancelOrders}."
      },
      "checkPredicate(bytes)": {
        "notice": "See {IOrderMixin-checkPredicate}."
      },
      "epoch(address,uint96)": {
        "notice": "Returns nonce for `maker` and `series`"
      },
      "epochEquals(address,uint256,uint256)": {
        "notice": "Checks if `maker` has specified `makerEpoch` for `series`"
      },
      "eq(uint256,bytes)": {
        "notice": "Calls target with specified data and tests if it's equal to the value"
      },
      "fillContractOrder((uint256,uint256,uint256,uint256,uint256,uint256,uint256,uint256,bytes32,bytes32),bytes,uint256,uint256)": {
        "notice": "See {IOrderMixin-fillContractOrder}."
      },
      "fillContractOrderArgs((uint256,uint256,uint256,uint256,uint256,uint256,uint256,uint256,bytes32,bytes32),bytes,uint256,uint256,bytes)": {
        "notice": "See {IOrderMixin-fillContractOrderArgs}."
      },
      "fillOrder((uint256,uint256,uint256,uint256,uint256,uint256,uint256,uint256,bytes32,bytes32),bytes32,bytes32,uint256,uint256)": {
        "notice": "See {IOrderMixin-fillOrder}."
      },
      "fillOrderArgs((uint256,uint256,uint256,uint256,uint256,uint256,uint256,uint256,bytes32,bytes32),bytes32,bytes32,uint256,uint256,bytes)": {
        "notice": "See {IOrderMixin-fillOrderArgs}."
      },
      "gt(uint256,bytes)": {
        "notice": "Calls target with specified data and tests if it's bigger than value"
      },
      "hashOrder((uint256,uint256,uint256,uint256,uint256,uint256,uint256,uint256,bytes32,bytes32))": {
        "notice": "See {IOrderMixin-hashOrder}."
      },
      "increaseEpoch(uint96)": {
        "notice": "Advances nonce by one"
      },
      "lt(uint256,bytes)": {
        "notice": "Calls target with specified data and tests if it's lower than value"
      },
      "not(bytes)": {
        "notice": "Calls target with specified data and tests if it's equal to 0"
      },
      "or(uint256,bytes)": {
        "notice": "Calls every target with corresponding data"
      },
      "pause()": {
        "notice": "Pauses all the trading functionality in the contract."
      },
      "rawRemainingInvalidatorForOrder(address,bytes32)": {
        "notice": "See {IOrderMixin-rawRemainingInvalidatorForOrder}."
      },
      "remainingInvalidatorForOrder(address,bytes32)": {
        "notice": "See {IOrderMixin-remainingInvalidatorForOrder}."
      },
      "simulate(address,bytes)": {
        "notice": "See {IOrderMixin-simulate}."
      },
      "unpause()": {
        "notice": "Unpauses all the trading functionality in the contract."
      }
    },
    "notice": "Limit order protocol provides two different order types - Regular Limit Order - RFQ Order Both types provide similar order-fulfilling functionality. The difference is that regular order offers more customization options and features, while RFQ order is extremely gas efficient but without ability to customize. Regular limit order additionally supports - Execution predicates. Conditions for order execution are set with predicates. For example, expiration timestamp or block number, price for stop loss or take profit strategies. - Callbacks to notify maker on order execution See [OrderMixin](OrderMixin.md) for more details. RFQ orders supports - Expiration time - Cancelation by order id - Partial Fill (only once) See [OrderMixin](OrderMixin.md) for more details.",
    "version": 1
  },
  "storageLayout": {
    "storage": [
      {
        "astId": 3388,
        "contract": "contracts/LimitOrderProtocol.sol:LimitOrderProtocol",
        "label": "_nameFallback",
        "offset": 0,
        "slot": "0",
        "type": "t_string_storage"
      },
      {
        "astId": 3390,
        "contract": "contracts/LimitOrderProtocol.sol:LimitOrderProtocol",
        "label": "_versionFallback",
        "offset": 0,
        "slot": "1",
        "type": "t_string_storage"
      },
      {
        "astId": 9417,
        "contract": "contracts/LimitOrderProtocol.sol:LimitOrderProtocol",
        "label": "_epochs",
        "offset": 0,
        "slot": "2",
        "type": "t_mapping(t_uint256,t_uint256)"
      },
      {
        "astId": 1173,
        "contract": "contracts/LimitOrderProtocol.sol:LimitOrderProtocol",
        "label": "_owner",
        "offset": 0,
        "slot": "3",
        "type": "t_address"
      },
      {
        "astId": 2234,
        "contract": "contracts/LimitOrderProtocol.sol:LimitOrderProtocol",
        "label": "_paused",
        "offset": 20,
        "slot": "3",
        "type": "t_bool"
      },
      {
        "astId": 7600,
        "contract": "contracts/LimitOrderProtocol.sol:LimitOrderProtocol",
        "label": "_bitInvalidator",
        "offset": 0,
        "slot": "4",
        "type": "t_mapping(t_address,t_struct(Data)10025_storage)"
      },
      {
        "astId": 7607,
        "contract": "contracts/LimitOrderProtocol.sol:LimitOrderProtocol",
        "label": "_remainingInvalidator",
        "offset": 0,
        "slot": "5",
        "type": "t_mapping(t_address,t_mapping(t_bytes32,t_userDefinedValueType(RemainingInvalidator)10794))"
      }
    ],
    "types": {
      "t_address": {
        "encoding": "inplace",
        "label": "address",
        "numberOfBytes": "20"
      },
      "t_bool": {
        "encoding": "inplace",
        "label": "bool",
        "numberOfBytes": "1"
      },
      "t_bytes32": {
        "encoding": "inplace",
        "label": "bytes32",
        "numberOfBytes": "32"
      },
      "t_mapping(t_address,t_mapping(t_bytes32,t_userDefinedValueType(RemainingInvalidator)10794))": {
        "encoding": "mapping",
        "key": "t_address",
        "label": "mapping(address => mapping(bytes32 => RemainingInvalidator))",
        "numberOfBytes": "32",
        "value": "t_mapping(t_bytes32,t_userDefinedValueType(RemainingInvalidator)10794)"
      },
      "t_mapping(t_address,t_struct(Data)10025_storage)": {
        "encoding": "mapping",
        "key": "t_address",
        "label": "mapping(address => struct BitInvalidatorLib.Data)",
        "numberOfBytes": "32",
        "value": "t_struct(Data)10025_storage"
      },
      "t_mapping(t_bytes32,t_userDefinedValueType(RemainingInvalidator)10794)": {
        "encoding": "mapping",
        "key": "t_bytes32",
        "label": "mapping(bytes32 => RemainingInvalidator)",
        "numberOfBytes": "32",
        "value": "t_userDefinedValueType(RemainingInvalidator)10794"
      },
      "t_mapping(t_uint256,t_uint256)": {
        "encoding": "mapping",
        "key": "t_uint256",
        "label": "mapping(uint256 => uint256)",
        "numberOfBytes": "32",
        "value": "t_uint256"
      },
      "t_string_storage": {
        "encoding": "bytes",
        "label": "string",
        "numberOfBytes": "32"
      },
      "t_struct(Data)10025_storage": {
        "encoding": "inplace",
        "label": "struct BitInvalidatorLib.Data",
        "members": [
          {
            "astId": 10024,
            "contract": "contracts/LimitOrderProtocol.sol:LimitOrderProtocol",
            "label": "_raw",
            "offset": 0,
            "slot": "0",
            "type": "t_mapping(t_uint256,t_uint256)"
          }
        ],
        "numberOfBytes": "32"
      },
      "t_uint256": {
        "encoding": "inplace",
        "label": "uint256",
        "numberOfBytes": "32"
      },
      "t_userDefinedValueType(RemainingInvalidator)10794": {
        "encoding": "inplace",
        "label": "RemainingInvalidator",
        "numberOfBytes": "32"
      }
    }
  }
}